{
  "_format": "hh-sol-artifact-1",
  "contractName": "TinyBears",
  "sourceName": "contracts/TinyBears.sol",
  "abi": [
    {
      "inputs": [
        {
          "internalType": "string",
          "name": "baseURI_",
          "type": "string"
        },
        {
          "internalType": "address",
          "name": "_layerZeroEndpoint",
          "type": "address"
        },
        {
          "internalType": "uint256",
          "name": "_nextTokenId",
          "type": "uint256"
        },
        {
          "internalType": "uint256",
          "name": "_maxAmount",
          "type": "uint256"
        }
      ],
      "stateMutability": "nonpayable",
      "type": "constructor"
    },
    {
      "anonymous": false,
      "inputs": [
        {
          "indexed": true,
          "internalType": "address",
          "name": "owner",
          "type": "address"
        },
        {
          "indexed": true,
          "internalType": "address",
          "name": "approved",
          "type": "address"
        },
        {
          "indexed": true,
          "internalType": "uint256",
          "name": "tokenId",
          "type": "uint256"
        }
      ],
      "name": "Approval",
      "type": "event"
    },
    {
      "anonymous": false,
      "inputs": [
        {
          "indexed": true,
          "internalType": "address",
          "name": "owner",
          "type": "address"
        },
        {
          "indexed": true,
          "internalType": "address",
          "name": "operator",
          "type": "address"
        },
        {
          "indexed": false,
          "internalType": "bool",
          "name": "approved",
          "type": "bool"
        }
      ],
      "name": "ApprovalForAll",
      "type": "event"
    },
    {
      "anonymous": false,
      "inputs": [
        {
          "indexed": false,
          "internalType": "uint16",
          "name": "_srcChainId",
          "type": "uint16"
        },
        {
          "indexed": false,
          "internalType": "bytes",
          "name": "_srcAddress",
          "type": "bytes"
        },
        {
          "indexed": false,
          "internalType": "uint64",
          "name": "_nonce",
          "type": "uint64"
        },
        {
          "indexed": false,
          "internalType": "bytes",
          "name": "_payload",
          "type": "bytes"
        }
      ],
      "name": "MessageFailed",
      "type": "event"
    },
    {
      "anonymous": false,
      "inputs": [
        {
          "indexed": true,
          "internalType": "address",
          "name": "previousOwner",
          "type": "address"
        },
        {
          "indexed": true,
          "internalType": "address",
          "name": "newOwner",
          "type": "address"
        }
      ],
      "name": "OwnershipTransferred",
      "type": "event"
    },
    {
      "anonymous": false,
      "inputs": [
        {
          "indexed": true,
          "internalType": "address",
          "name": "from",
          "type": "address"
        },
        {
          "indexed": true,
          "internalType": "address",
          "name": "to",
          "type": "address"
        },
        {
          "indexed": true,
          "internalType": "uint256",
          "name": "tokenId",
          "type": "uint256"
        }
      ],
      "name": "Transfer",
      "type": "event"
    },
    {
      "inputs": [],
      "name": "_owner",
      "outputs": [
        {
          "internalType": "address",
          "name": "",
          "type": "address"
        }
      ],
      "stateMutability": "view",
      "type": "function"
    },
    {
      "inputs": [
        {
          "internalType": "address",
          "name": "to",
          "type": "address"
        },
        {
          "internalType": "uint256",
          "name": "tokenId",
          "type": "uint256"
        }
      ],
      "name": "approve",
      "outputs": [],
      "stateMutability": "nonpayable",
      "type": "function"
    },
    {
      "inputs": [
        {
          "internalType": "address",
          "name": "owner",
          "type": "address"
        }
      ],
      "name": "balanceOf",
      "outputs": [
        {
          "internalType": "uint256",
          "name": "",
          "type": "uint256"
        }
      ],
      "stateMutability": "view",
      "type": "function"
    },
    {
      "inputs": [],
      "name": "baseExtension",
      "outputs": [
        {
          "internalType": "string",
          "name": "",
          "type": "string"
        }
      ],
      "stateMutability": "view",
      "type": "function"
    },
    {
      "inputs": [],
      "name": "currentTokenId",
      "outputs": [
        {
          "internalType": "uint256",
          "name": "",
          "type": "uint256"
        }
      ],
      "stateMutability": "view",
      "type": "function"
    },
    {
      "inputs": [
        {
          "internalType": "uint16",
          "name": "",
          "type": "uint16"
        },
        {
          "internalType": "bytes",
          "name": "",
          "type": "bytes"
        },
        {
          "internalType": "uint256",
          "name": "",
          "type": "uint256"
        }
      ],
      "name": "failedMessages",
      "outputs": [
        {
          "internalType": "uint256",
          "name": "payloadLength",
          "type": "uint256"
        },
        {
          "internalType": "bytes32",
          "name": "payloadHash",
          "type": "bytes32"
        }
      ],
      "stateMutability": "view",
      "type": "function"
    },
    {
      "inputs": [
        {
          "internalType": "uint256",
          "name": "tokenId",
          "type": "uint256"
        }
      ],
      "name": "getApproved",
      "outputs": [
        {
          "internalType": "address",
          "name": "",
          "type": "address"
        }
      ],
      "stateMutability": "view",
      "type": "function"
    },
    {
      "inputs": [
        {
          "internalType": "address",
          "name": "owner",
          "type": "address"
        },
        {
          "internalType": "address",
          "name": "operator",
          "type": "address"
        }
      ],
      "name": "isApprovedForAll",
      "outputs": [
        {
          "internalType": "bool",
          "name": "",
          "type": "bool"
        }
      ],
      "stateMutability": "view",
      "type": "function"
    },
    {
      "inputs": [
        {
          "internalType": "uint16",
          "name": "_srcChainId",
          "type": "uint16"
        },
        {
          "internalType": "bytes",
          "name": "_srcAddress",
          "type": "bytes"
        },
        {
          "internalType": "uint64",
          "name": "_nonce",
          "type": "uint64"
        },
        {
          "internalType": "bytes",
          "name": "_payload",
          "type": "bytes"
        }
      ],
      "name": "lzReceive",
      "outputs": [],
      "stateMutability": "nonpayable",
      "type": "function"
    },
    {
      "inputs": [
        {
          "internalType": "uint8",
          "name": "numTokens",
          "type": "uint8"
        }
      ],
      "name": "mint",
      "outputs": [],
      "stateMutability": "payable",
      "type": "function"
    },
    {
      "inputs": [],
      "name": "name",
      "outputs": [
        {
          "internalType": "string",
          "name": "",
          "type": "string"
        }
      ],
      "stateMutability": "view",
      "type": "function"
    },
    {
      "inputs": [
        {
          "internalType": "uint16",
          "name": "_srcChainId",
          "type": "uint16"
        },
        {
          "internalType": "bytes",
          "name": "_srcAddress",
          "type": "bytes"
        },
        {
          "internalType": "uint64",
          "name": "_nonce",
          "type": "uint64"
        },
        {
          "internalType": "bytes",
          "name": "_payload",
          "type": "bytes"
        }
      ],
      "name": "onLzReceive",
      "outputs": [],
      "stateMutability": "nonpayable",
      "type": "function"
    },
    {
      "inputs": [],
      "name": "owner",
      "outputs": [
        {
          "internalType": "address",
          "name": "",
          "type": "address"
        }
      ],
      "stateMutability": "view",
      "type": "function"
    },
    {
      "inputs": [
        {
          "internalType": "uint256",
          "name": "tokenId",
          "type": "uint256"
        }
      ],
      "name": "ownerOf",
      "outputs": [
        {
          "internalType": "address",
          "name": "",
          "type": "address"
        }
      ],
      "stateMutability": "view",
      "type": "function"
    },
    {
      "inputs": [],
      "name": "paused",
      "outputs": [
        {
          "internalType": "bool",
          "name": "",
          "type": "bool"
        }
      ],
      "stateMutability": "view",
      "type": "function"
    },
    {
      "inputs": [],
      "name": "renounceOwnership",
      "outputs": [],
      "stateMutability": "nonpayable",
      "type": "function"
    },
    {
      "inputs": [
        {
          "internalType": "uint16",
          "name": "_srcChainId",
          "type": "uint16"
        },
        {
          "internalType": "bytes",
          "name": "_srcAddress",
          "type": "bytes"
        },
        {
          "internalType": "uint64",
          "name": "_nonce",
          "type": "uint64"
        },
        {
          "internalType": "bytes",
          "name": "_payload",
          "type": "bytes"
        }
      ],
      "name": "retryMessage",
      "outputs": [],
      "stateMutability": "payable",
      "type": "function"
    },
    {
      "inputs": [
        {
          "internalType": "address",
          "name": "from",
          "type": "address"
        },
        {
          "internalType": "address",
          "name": "to",
          "type": "address"
        },
        {
          "internalType": "uint256",
          "name": "tokenId",
          "type": "uint256"
        }
      ],
      "name": "safeTransferFrom",
      "outputs": [],
      "stateMutability": "nonpayable",
      "type": "function"
    },
    {
      "inputs": [
        {
          "internalType": "address",
          "name": "from",
          "type": "address"
        },
        {
          "internalType": "address",
          "name": "to",
          "type": "address"
        },
        {
          "internalType": "uint256",
          "name": "tokenId",
          "type": "uint256"
        },
        {
          "internalType": "bytes",
          "name": "_data",
          "type": "bytes"
        }
      ],
      "name": "safeTransferFrom",
      "outputs": [],
      "stateMutability": "nonpayable",
      "type": "function"
    },
    {
      "inputs": [
        {
          "internalType": "address",
          "name": "operator",
          "type": "address"
        },
        {
          "internalType": "bool",
          "name": "approved",
          "type": "bool"
        }
      ],
      "name": "setApprovalForAll",
      "outputs": [],
      "stateMutability": "nonpayable",
      "type": "function"
    },
    {
      "inputs": [
        {
          "internalType": "string",
          "name": "URI",
          "type": "string"
        }
      ],
      "name": "setBaseURI",
      "outputs": [],
      "stateMutability": "nonpayable",
      "type": "function"
    },
    {
      "inputs": [
        {
          "internalType": "uint256",
          "name": "newVal",
          "type": "uint256"
        }
      ],
      "name": "setGasForDestinationLzReceive",
      "outputs": [],
      "stateMutability": "nonpayable",
      "type": "function"
    },
    {
      "inputs": [
        {
          "internalType": "uint16",
          "name": "_chainId",
          "type": "uint16"
        },
        {
          "internalType": "bytes",
          "name": "_trustedRemote",
          "type": "bytes"
        }
      ],
      "name": "setTrustedRemote",
      "outputs": [],
      "stateMutability": "nonpayable",
      "type": "function"
    },
    {
      "inputs": [
        {
          "internalType": "bytes4",
          "name": "interfaceId",
          "type": "bytes4"
        }
      ],
      "name": "supportsInterface",
      "outputs": [
        {
          "internalType": "bool",
          "name": "",
          "type": "bool"
        }
      ],
      "stateMutability": "view",
      "type": "function"
    },
    {
      "inputs": [],
      "name": "symbol",
      "outputs": [
        {
          "internalType": "string",
          "name": "",
          "type": "string"
        }
      ],
      "stateMutability": "view",
      "type": "function"
    },
    {
      "inputs": [],
      "name": "togglePause",
      "outputs": [],
      "stateMutability": "nonpayable",
      "type": "function"
    },
    {
      "inputs": [
        {
          "internalType": "uint256",
          "name": "tokenId",
          "type": "uint256"
        }
      ],
      "name": "tokenURI",
      "outputs": [
        {
          "internalType": "string",
          "name": "",
          "type": "string"
        }
      ],
      "stateMutability": "view",
      "type": "function"
    },
    {
      "inputs": [
        {
          "internalType": "address",
          "name": "from",
          "type": "address"
        },
        {
          "internalType": "address",
          "name": "to",
          "type": "address"
        },
        {
          "internalType": "uint256",
          "name": "tokenId",
          "type": "uint256"
        }
      ],
      "name": "transferFrom",
      "outputs": [],
      "stateMutability": "nonpayable",
      "type": "function"
    },
    {
      "inputs": [
        {
          "internalType": "address",
          "name": "newOwner",
          "type": "address"
        }
      ],
      "name": "transferOwnership",
      "outputs": [],
      "stateMutability": "nonpayable",
      "type": "function"
    },
    {
      "inputs": [
        {
          "internalType": "uint16",
          "name": "_chainId",
          "type": "uint16"
        },
        {
          "internalType": "uint256",
          "name": "tokenId",
          "type": "uint256"
        }
      ],
      "name": "traverseChains",
      "outputs": [],
      "stateMutability": "payable",
      "type": "function"
    },
    {
      "inputs": [
        {
          "internalType": "uint16",
          "name": "",
          "type": "uint16"
        }
      ],
      "name": "trustedRemoteLookup",
      "outputs": [
        {
          "internalType": "bytes",
          "name": "",
          "type": "bytes"
        }
      ],
      "stateMutability": "view",
      "type": "function"
    },
    {
      "inputs": [
        {
          "internalType": "uint256",
          "name": "amt",
          "type": "uint256"
        }
      ],
      "name": "withdraw",
      "outputs": [],
      "stateMutability": "nonpayable",
      "type": "function"
    }
  ],
  "bytecode": "0x6000600c819055600d556002600e5560c06040526005608081905264173539b7b760d91b60a09081526200003791600f9190620001a4565b50620557306010556011805460ff191690553480156200005657600080fd5b5060405162002f3b38038062002f3b83398101604081905262000079916200027d565b6040518060400160405280600a81526020016974696e7920626561727360b01b815250604051806040016040528060028152602001613a3160f11b815250620000d1620000cb6200015060201b60201c565b62000154565b8151620000e6906001906020850190620001a4565b508051620000fc906002906020840190620001a4565b5050600a8054336001600160a01b031991821617909155600780549091166001600160a01b0386161790555083516200013d90600b906020870190620001a4565b50600c91909155600d5550620003bb9050565b3390565b600080546001600160a01b038381166001600160a01b0319831681178455604051919092169283917f8be0079c531659141344cd1fd0a4f28419497f9722a3daafe3b4186f6b6457e09190a35050565b828054620001b2906200037e565b90600052602060002090601f016020900481019282620001d6576000855562000221565b82601f10620001f157805160ff191683800117855562000221565b8280016001018555821562000221579182015b828111156200022157825182559160200191906001019062000204565b506200022f92915062000233565b5090565b5b808211156200022f576000815560010162000234565b634e487b7160e01b600052604160045260246000fd5b80516001600160a01b03811681146200027857600080fd5b919050565b600080600080608085870312156200029457600080fd5b84516001600160401b0380821115620002ac57600080fd5b818701915087601f830112620002c157600080fd5b815181811115620002d657620002d66200024a565b604051601f8201601f19908116603f011681019083821181831017156200030157620003016200024a565b81604052828152602093508a848487010111156200031e57600080fd5b600091505b8282101562000342578482018401518183018501529083019062000323565b82821115620003545760008484830101525b97506200036691505087820162000260565b60408801516060909801519699909850945050505050565b600181811c908216806200039357607f821691505b60208210811415620003b557634e487b7160e01b600052602260045260246000fd5b50919050565b612b7080620003cb6000396000f3fe6080604052600436106101e15760003560e01c80637533d78811610102578063c4ae316811610095578063d1deba1f11610064578063d1deba1f14610593578063e985e9c5146105a6578063eb8d72b7146105ef578063f2fde38b1461060f57600080fd5b8063c4ae316814610536578063c66828621461054b578063c87b56dd14610560578063cf89fa031461058057600080fd5b806395d89b41116100d157806395d89b41146104c1578063a22cb465146104d6578063b2bdfa7b146104f6578063b88d4fde1461051657600080fd5b80637533d788146103f85780638da5cb5b146104185780638ee7491214610436578063943fb872146104a157600080fd5b80632e1a7d4d1161017a5780636352211e116101495780636352211e146103905780636ecd2306146103b057806370a08231146103c3578063715018a6146103e357600080fd5b80632e1a7d4d1461031657806342842e0e1461033657806355f804b3146103565780635c975abb1461037657600080fd5b8063081812fc116101b6578063081812fc1461027e578063095ea7b3146102b65780631c37a822146102d657806323b872dd146102f657600080fd5b80621d3567146101e65780629a9b7b1461020857806301ffc9a71461022c57806306fdde031461025c575b600080fd5b3480156101f257600080fd5b5061020661020136600461212a565b61062f565b005b34801561021457600080fd5b50600c545b6040519081526020015b60405180910390f35b34801561023857600080fd5b5061024c6102473660046121c4565b610829565b6040519015158152602001610223565b34801561026857600080fd5b5061027161087b565b6040516102239190612239565b34801561028a57600080fd5b5061029e61029936600461224c565b61090d565b6040516001600160a01b039091168152602001610223565b3480156102c257600080fd5b506102066102d136600461227a565b6109a2565b3480156102e257600080fd5b506102066102f136600461212a565b610ab8565b34801561030257600080fd5b506102066103113660046122a6565b610b27565b34801561032257600080fd5b5061020661033136600461224c565b610b58565b34801561034257600080fd5b506102066103513660046122a6565b610c35565b34801561036257600080fd5b506102066103713660046122e7565b610c50565b34801561038257600080fd5b5060115461024c9060ff1681565b34801561039c57600080fd5b5061029e6103ab36600461224c565b610c8d565b6102066103be36600461232f565b610d04565b3480156103cf57600080fd5b506102196103de366004612352565b610e91565b3480156103ef57600080fd5b50610206610f18565b34801561040457600080fd5b5061027161041336600461236f565b610f4e565b34801561042457600080fd5b506000546001600160a01b031661029e565b34801561044257600080fd5b5061048c61045136600461238a565b600860209081526000938452604080852084518086018401805192815290840195840195909520945292905282529020805460019091015482565b60408051928352602083019190915201610223565b3480156104ad57600080fd5b506102066104bc36600461224c565b610fe8565b3480156104cd57600080fd5b50610271611017565b3480156104e257600080fd5b506102066104f13660046123e0565b611026565b34801561050257600080fd5b50600a5461029e906001600160a01b031681565b34801561052257600080fd5b5061020661053136600461241e565b611031565b34801561054257600080fd5b50610206611063565b34801561055757600080fd5b506102716110a1565b34801561056c57600080fd5b5061027161057b36600461224c565b6110ae565b61020661058e36600461247d565b611189565b6102066105a13660046124e1565b611472565b3480156105b257600080fd5b5061024c6105c136600461256c565b6001600160a01b03918216600090815260066020908152604080832093909416825291909152205460ff1690565b3480156105fb57600080fd5b5061020661060a36600461259a565b6115ff565b34801561061b57600080fd5b5061020661062a366004612352565b611647565b6007546001600160a01b0316331461064657600080fd5b61ffff841660009081526009602052604090208054610664906125ec565b905083511480156106a3575061ffff84166000908152600960205260409081902090516106919190612627565b60405180910390208380519060200120145b6107115760405162461bcd60e51b815260206004820152603460248201527f4e6f6e626c6f636b696e6752656365697665723a20696e76616c696420736f756044820152731c98d9481cd95b991a5b99c818dbdb9d1c9858dd60621b60648201526084015b60405180910390fd5b604051630e1bd41160e11b81523090631c37a8229061073a908790879087908790600401612699565b600060405180830381600087803b15801561075457600080fd5b505af1925050508015610765575060015b610823576040518060400160405280825181526020018280519060200120815250600860008661ffff1661ffff168152602001908152602001600020846040516107af91906126e2565b9081526040805191829003602090810183206001600160401b038716600090815290825291909120835181559201516001909201919091557fe6f254030bcb01ffd20558175c13fcaed6d1520be7becee4c961b65f79243b0d9061081a908690869086908690612699565b60405180910390a15b50505050565b60006001600160e01b031982166380ac58cd60e01b148061085a57506001600160e01b03198216635b5e139f60e01b145b8061087557506301ffc9a760e01b6001600160e01b03198316145b92915050565b60606001805461088a906125ec565b80601f01602080910402602001604051908101604052809291908181526020018280546108b6906125ec565b80156109035780601f106108d857610100808354040283529160200191610903565b820191906000526020600020905b8154815290600101906020018083116108e657829003601f168201915b5050505050905090565b6000818152600360205260408120546001600160a01b03166109865760405162461bcd60e51b815260206004820152602c60248201527f4552433732313a20617070726f76656420717565727920666f72206e6f6e657860448201526b34b9ba32b73a103a37b5b2b760a11b6064820152608401610708565b506000908152600560205260409020546001600160a01b031690565b60006109ad82610c8d565b9050806001600160a01b0316836001600160a01b03161415610a1b5760405162461bcd60e51b815260206004820152602160248201527f4552433732313a20617070726f76616c20746f2063757272656e74206f776e656044820152603960f91b6064820152608401610708565b336001600160a01b0382161480610a375750610a3781336105c1565b610aa95760405162461bcd60e51b815260206004820152603860248201527f4552433732313a20617070726f76652063616c6c6572206973206e6f74206f7760448201527f6e6572206e6f7220617070726f76656420666f7220616c6c00000000000000006064820152608401610708565b610ab383836116e2565b505050565b333014610b1b5760405162461bcd60e51b815260206004820152602b60248201527f4e6f6e626c6f636b696e6752656365697665723a2063616c6c6572206d75737460448201526a10313290213934b233b29760a91b6064820152608401610708565b61082384848484611750565b610b31338261177d565b610b4d5760405162461bcd60e51b8152600401610708906126fe565b610ab3838383611874565b6000546001600160a01b03163314610b825760405162461bcd60e51b81526004016107089061274f565b600a546040516000916001600160a01b03169083908381818185875af1925050503d8060008114610bcf576040519150601f19603f3d011682016040523d82523d6000602084013e610bd4565b606091505b5050905080610c315760405162461bcd60e51b8152602060048201526024808201527f74696e792062656172733a204661696c656420746f2077697468647261772066604482015263756e647360e01b6064820152608401610708565b5050565b610ab383838360405180602001604052806000815250611031565b6000546001600160a01b03163314610c7a5760405162461bcd60e51b81526004016107089061274f565b8051610c3190600b906020840190611f44565b6000818152600360205260408120546001600160a01b0316806108755760405162461bcd60e51b815260206004820152602960248201527f4552433732313a206f776e657220717565727920666f72206e6f6e657869737460448201526832b73a103a37b5b2b760b91b6064820152608401610708565b600e548160ff16610d1433610e91565b610d1e919061279a565b1115610d835760405162461bcd60e51b815260206004820152602e60248201527f74696e792062656172733a204d6178206d696e74207065722077616c6c65742060448201526d185b5bdd5b9d081c995858da195960921b6064820152608401610708565b600d548160ff16600c54610d97919061279a565b1115610dfe5760405162461bcd60e51b815260206004820152603060248201527f74696e792062656172733a204d696e74206578636565647320737570706c792060448201526f666f722074686973206e6574776f726b60801b6064820152608401610708565b60115460ff1615610e515760405162461bcd60e51b815260206004820152601e60248201527f74696e792062656172733a20436f6e74726163742069732070617573656400006044820152606401610708565b60005b8160ff168160ff161015610c3157610e7f33600c60008154610e75906127b2565b9182905550611a14565b80610e89816127cd565b915050610e54565b60006001600160a01b038216610efc5760405162461bcd60e51b815260206004820152602a60248201527f4552433732313a2062616c616e636520717565727920666f7220746865207a65604482015269726f206164647265737360b01b6064820152608401610708565b506001600160a01b031660009081526004602052604090205490565b6000546001600160a01b03163314610f425760405162461bcd60e51b81526004016107089061274f565b610f4c6000611a2e565b565b60096020526000908152604090208054610f67906125ec565b80601f0160208091040260200160405190810160405280929190818152602001828054610f93906125ec565b8015610fe05780601f10610fb557610100808354040283529160200191610fe0565b820191906000526020600020905b815481529060010190602001808311610fc357829003601f168201915b505050505081565b6000546001600160a01b031633146110125760405162461bcd60e51b81526004016107089061274f565b601055565b60606002805461088a906125ec565b610c31338383611a7e565b61103b338361177d565b6110575760405162461bcd60e51b8152600401610708906126fe565b61082384848484611b4d565b6000546001600160a01b0316331461108d5760405162461bcd60e51b81526004016107089061274f565b6011805460ff19811660ff90911615179055565b600f8054610f67906125ec565b6000818152600360205260409020546060906001600160a01b031661112d5760405162461bcd60e51b815260206004820152602f60248201527f4552433732314d657461646174613a2055524920717565727920666f72206e6f60448201526e3732bc34b9ba32b73a103a37b5b2b760891b6064820152608401610708565b6000611137611b80565b905060008151116111575760405180602001604052806000815250611182565b8061116184611b8f565b6040516020016111729291906127ed565b6040516020818303038152906040525b9392505050565b61119281610c8d565b6001600160a01b0316336001600160a01b0316146111fd5760405162461bcd60e51b815260206004820152602260248201527f596f75206d757374206f776e2074686520746f6b656e20746f20747261766572604482015261736560f01b6064820152608401610708565b61ffff82166000908152600960205260408120805461121b906125ec565b9050116112815760405162461bcd60e51b815260206004820152602e60248201527f5468697320636861696e2069732063757272656e746c7920756e617661696c6160448201526d189b1948199bdc881d1c985d995b60921b6064820152608401610708565b61128a81611c8c565b60408051336020820152808201839052815180820383018152606082018352601054600160f01b60808401526082808401919091528351808403909101815260a283019384905260075463040a7bb160e41b90945290926001926000916001600160a01b0316906340a7bb109061130d908990309089908790899060a60161282c565b604080518083038186803b15801561132457600080fd5b505afa158015611338573d6000803e3d6000fd5b505050506040513d601f19601f8201168201806040525081019061135c9190612880565b509050803410156113ed5760405162461bcd60e51b815260206004820152604f60248201527f74696e792062656172733a206d73672e76616c7565206e6f7420656e6f75676860448201527f20746f20636f766572206d6573736167654665652e2053656e6420676173206660648201526e6f72206d657373616765206665657360881b608482015260a401610708565b60075461ffff8716600090815260096020526040808220905162c5803160e81b81526001600160a01b039093169263c5803100923492611438928c928b913391908b906004016128a4565b6000604051808303818588803b15801561145157600080fd5b505af1158015611465573d6000803e3d6000fd5b5050505050505050505050565b61ffff851660009081526008602052604080822090516114939087906126e2565b90815260408051602092819003830190206001600160401b038716600090815292529020600181015490915061151a5760405162461bcd60e51b815260206004820152602660248201527f4e6f6e626c6f636b696e6752656365697665723a206e6f2073746f726564206d60448201526565737361676560d01b6064820152608401610708565b80548214801561154457508060010154838360405161153a929190612984565b6040518091039020145b6115905760405162461bcd60e51b815260206004820152601a60248201527f4c617965725a65726f3a20696e76616c6964207061796c6f61640000000000006044820152606401610708565b60008082556001820155604051630e1bd41160e11b81523090631c37a822906115c59089908990899089908990600401612994565b600060405180830381600087803b1580156115df57600080fd5b505af11580156115f3573d6000803e3d6000fd5b50505050505050505050565b6000546001600160a01b031633146116295760405162461bcd60e51b81526004016107089061274f565b61ffff83166000908152600960205260409020610823908383611fc8565b6000546001600160a01b031633146116715760405162461bcd60e51b81526004016107089061274f565b6001600160a01b0381166116d65760405162461bcd60e51b815260206004820152602660248201527f4f776e61626c653a206e6577206f776e657220697320746865207a65726f206160448201526564647265737360d01b6064820152608401610708565b6116df81611a2e565b50565b600081815260056020526040902080546001600160a01b0319166001600160a01b038416908117909155819061171782610c8d565b6001600160a01b03167f8c5be1e5ebec7d5bd14f71427d1e84f3dd0314c0f7b2291e5b200ac8c7c3b92560405160405180910390a45050565b6000808280602001905181019061176791906129f5565b915091506117758282611a14565b505050505050565b6000818152600360205260408120546001600160a01b03166117f65760405162461bcd60e51b815260206004820152602c60248201527f4552433732313a206f70657261746f7220717565727920666f72206e6f6e657860448201526b34b9ba32b73a103a37b5b2b760a11b6064820152608401610708565b600061180183610c8d565b9050806001600160a01b0316846001600160a01b0316148061183c5750836001600160a01b03166118318461090d565b6001600160a01b0316145b8061186c57506001600160a01b0380821660009081526006602090815260408083209388168352929052205460ff165b949350505050565b826001600160a01b031661188782610c8d565b6001600160a01b0316146118ef5760405162461bcd60e51b815260206004820152602960248201527f4552433732313a207472616e73666572206f6620746f6b656e2074686174206960448201526839903737ba1037bbb760b91b6064820152608401610708565b6001600160a01b0382166119515760405162461bcd60e51b8152602060048201526024808201527f4552433732313a207472616e7366657220746f20746865207a65726f206164646044820152637265737360e01b6064820152608401610708565b61195c6000826116e2565b6001600160a01b0383166000908152600460205260408120805460019290611985908490612a23565b90915550506001600160a01b03821660009081526004602052604081208054600192906119b390849061279a565b909155505060008181526003602052604080822080546001600160a01b0319166001600160a01b0386811691821790925591518493918716917fddf252ad1be2c89b69c2b068fc378daa952ba7f163c4a11628f55a4df523b3ef91a4505050565b610c31828260405180602001604052806000815250611d27565b600080546001600160a01b038381166001600160a01b0319831681178455604051919092169283917f8be0079c531659141344cd1fd0a4f28419497f9722a3daafe3b4186f6b6457e09190a35050565b816001600160a01b0316836001600160a01b03161415611ae05760405162461bcd60e51b815260206004820152601960248201527f4552433732313a20617070726f766520746f2063616c6c6572000000000000006044820152606401610708565b6001600160a01b03838116600081815260066020908152604080832094871680845294825291829020805460ff191686151590811790915591519182527f17307eab39ab6107e8899845ad3d59bd9653f200f220920489ca2b5937696c31910160405180910390a3505050565b611b58848484611874565b611b6484848484611d5a565b6108235760405162461bcd60e51b815260040161070890612a3a565b6060600b805461088a906125ec565b606081611bb35750506040805180820190915260018152600360fc1b602082015290565b8160005b8115611bdd5780611bc7816127b2565b9150611bd69050600a83612aa2565b9150611bb7565b6000816001600160401b03811115611bf757611bf7612068565b6040519080825280601f01601f191660200182016040528015611c21576020820181803683370190505b5090505b841561186c57611c36600183612a23565b9150611c43600a86612ab6565b611c4e90603061279a565b60f81b818381518110611c6357611c63612aca565b60200101906001600160f81b031916908160001a905350611c85600a86612aa2565b9450611c25565b6000611c9782610c8d565b9050611ca46000836116e2565b6001600160a01b0381166000908152600460205260408120805460019290611ccd908490612a23565b909155505060008281526003602052604080822080546001600160a01b0319169055518391906001600160a01b038416907fddf252ad1be2c89b69c2b068fc378daa952ba7f163c4a11628f55a4df523b3ef908390a45050565b611d318383611e67565b611d3e6000848484611d5a565b610ab35760405162461bcd60e51b815260040161070890612a3a565b60006001600160a01b0384163b15611e5c57604051630a85bd0160e11b81526001600160a01b0385169063150b7a0290611d9e903390899088908890600401612ae0565b602060405180830381600087803b158015611db857600080fd5b505af1925050508015611de8575060408051601f3d908101601f19168201909252611de591810190612b1d565b60015b611e42573d808015611e16576040519150601f19603f3d011682016040523d82523d6000602084013e611e1b565b606091505b508051611e3a5760405162461bcd60e51b815260040161070890612a3a565b805181602001fd5b6001600160e01b031916630a85bd0160e11b14905061186c565b506001949350505050565b6001600160a01b038216611ebd5760405162461bcd60e51b815260206004820181905260248201527f4552433732313a206d696e7420746f20746865207a65726f20616464726573736044820152606401610708565b6001600160a01b0382166000908152600460205260408120805460019290611ee690849061279a565b909155505060008181526003602052604080822080546001600160a01b0319166001600160a01b03861690811790915590518392907fddf252ad1be2c89b69c2b068fc378daa952ba7f163c4a11628f55a4df523b3ef908290a45050565b828054611f50906125ec565b90600052602060002090601f016020900481019282611f725760008555611fb8565b82601f10611f8b57805160ff1916838001178555611fb8565b82800160010185558215611fb8579182015b82811115611fb8578251825591602001919060010190611f9d565b50611fc492915061203c565b5090565b828054611fd4906125ec565b90600052602060002090601f016020900481019282611ff65760008555611fb8565b82601f1061200f5782800160ff19823516178555611fb8565b82800160010185558215611fb8579182015b82811115611fb8578235825591602001919060010190612021565b5b80821115611fc4576000815560010161203d565b803561ffff8116811461206357600080fd5b919050565b634e487b7160e01b600052604160045260246000fd5b60006001600160401b038084111561209857612098612068565b604051601f8501601f19908116603f011681019082821181831017156120c0576120c0612068565b816040528093508581528686860111156120d957600080fd5b858560208301376000602087830101525050509392505050565b600082601f83011261210457600080fd5b6111828383356020850161207e565b80356001600160401b038116811461206357600080fd5b6000806000806080858703121561214057600080fd5b61214985612051565b935060208501356001600160401b038082111561216557600080fd5b612171888389016120f3565b945061217f60408801612113565b9350606087013591508082111561219557600080fd5b506121a2878288016120f3565b91505092959194509250565b6001600160e01b0319811681146116df57600080fd5b6000602082840312156121d657600080fd5b8135611182816121ae565b60005b838110156121fc5781810151838201526020016121e4565b838111156108235750506000910152565b600081518084526122258160208601602086016121e1565b601f01601f19169290920160200192915050565b602081526000611182602083018461220d565b60006020828403121561225e57600080fd5b5035919050565b6001600160a01b03811681146116df57600080fd5b6000806040838503121561228d57600080fd5b823561229881612265565b946020939093013593505050565b6000806000606084860312156122bb57600080fd5b83356122c681612265565b925060208401356122d681612265565b929592945050506040919091013590565b6000602082840312156122f957600080fd5b81356001600160401b0381111561230f57600080fd5b8201601f8101841361232057600080fd5b61186c8482356020840161207e565b60006020828403121561234157600080fd5b813560ff8116811461118257600080fd5b60006020828403121561236457600080fd5b813561118281612265565b60006020828403121561238157600080fd5b61118282612051565b60008060006060848603121561239f57600080fd5b6123a884612051565b925060208401356001600160401b038111156123c357600080fd5b6123cf868287016120f3565b925050604084013590509250925092565b600080604083850312156123f357600080fd5b82356123fe81612265565b91506020830135801515811461241357600080fd5b809150509250929050565b6000806000806080858703121561243457600080fd5b843561243f81612265565b9350602085013561244f81612265565b92506040850135915060608501356001600160401b0381111561247157600080fd5b6121a2878288016120f3565b6000806040838503121561249057600080fd5b61229883612051565b60008083601f8401126124ab57600080fd5b5081356001600160401b038111156124c257600080fd5b6020830191508360208285010111156124da57600080fd5b9250929050565b6000806000806000608086880312156124f957600080fd5b61250286612051565b945060208601356001600160401b038082111561251e57600080fd5b61252a89838a016120f3565b955061253860408901612113565b9450606088013591508082111561254e57600080fd5b5061255b88828901612499565b969995985093965092949392505050565b6000806040838503121561257f57600080fd5b823561258a81612265565b9150602083013561241381612265565b6000806000604084860312156125af57600080fd5b6125b884612051565b925060208401356001600160401b038111156125d357600080fd5b6125df86828701612499565b9497909650939450505050565b600181811c9082168061260057607f821691505b6020821081141561262157634e487b7160e01b600052602260045260246000fd5b50919050565b6000808354612635816125ec565b6001828116801561264d576001811461265e5761268d565b60ff1984168752828701945061268d565b8760005260208060002060005b858110156126845781548a82015290840190820161266b565b50505082870194505b50929695505050505050565b61ffff851681526080602082015260006126b6608083018661220d565b6001600160401b038516604084015282810360608401526126d7818561220d565b979650505050505050565b600082516126f48184602087016121e1565b9190910192915050565b60208082526031908201527f4552433732313a207472616e736665722063616c6c6572206973206e6f74206f6040820152701ddb995c881b9bdc88185c1c1c9bdd9959607a1b606082015260800190565b6020808252818101527f4f776e61626c653a2063616c6c6572206973206e6f7420746865206f776e6572604082015260600190565b634e487b7160e01b600052601160045260246000fd5b600082198211156127ad576127ad612784565b500190565b60006000198214156127c6576127c6612784565b5060010190565b600060ff821660ff8114156127e4576127e4612784565b60010192915050565b600083516127ff8184602088016121e1565b8351908301906128138183602088016121e1565b64173539b7b760d91b9101908152600501949350505050565b61ffff861681526001600160a01b038516602082015260a06040820181905260009061285a9083018661220d565b84151560608401528281036080840152612874818561220d565b98975050505050505050565b6000806040838503121561289357600080fd5b505080516020909101519092909150565b61ffff871681526000602060c081840152600088546128c2816125ec565b8060c087015260e06001808416600081146128e457600181146128f957612927565b60ff1985168984015261010089019550612927565b8d6000528660002060005b8581101561291f5781548b8201860152908301908801612904565b8a0184019650505b5050505050838103604085015261293e818961220d565b91505061295660608401876001600160a01b03169052565b6001600160a01b038516608084015282810360a0840152612977818561220d565b9998505050505050505050565b8183823760009101908152919050565b61ffff861681526080602082015260006129b1608083018761220d565b6001600160401b03861660408401528281036060840152838152838560208301376000602085830101526020601f19601f8601168201019150509695505050505050565b60008060408385031215612a0857600080fd5b8251612a1381612265565b6020939093015192949293505050565b600082821015612a3557612a35612784565b500390565b60208082526032908201527f4552433732313a207472616e7366657220746f206e6f6e20455243373231526560408201527131b2b4bb32b91034b6b83632b6b2b73a32b960711b606082015260800190565b634e487b7160e01b600052601260045260246000fd5b600082612ab157612ab1612a8c565b500490565b600082612ac557612ac5612a8c565b500690565b634e487b7160e01b600052603260045260246000fd5b6001600160a01b0385811682528416602082015260408101839052608060608201819052600090612b139083018461220d565b9695505050505050565b600060208284031215612b2f57600080fd5b8151611182816121ae56fea26469706673582212207dd159f9c83ebd26ded4da89c5a48c00d6bc01d1002479a7a25366ff2d2f8fb864736f6c63430008090033",
  "linkReferences": {},
  "deployedLinkReferences": {}
}