{
  "_format": "hh-sol-artifact-1",
  "contractName": "TinyBears",
  "sourceName": "contracts/TinyBears.sol",
  "abi": [
    {
      "inputs": [
        {
          "internalType": "string",
          "name": "baseURI_",
          "type": "string"
        },
        {
          "internalType": "address",
          "name": "_layerZeroEndpoint",
          "type": "address"
        },
        {
          "internalType": "uint256",
          "name": "_nextTokenId",
          "type": "uint256"
        },
        {
          "internalType": "uint256",
          "name": "_maxAmount",
          "type": "uint256"
        }
      ],
      "stateMutability": "nonpayable",
      "type": "constructor"
    },
    {
      "anonymous": false,
      "inputs": [
        {
          "indexed": true,
          "internalType": "address",
          "name": "owner",
          "type": "address"
        },
        {
          "indexed": true,
          "internalType": "address",
          "name": "approved",
          "type": "address"
        },
        {
          "indexed": true,
          "internalType": "uint256",
          "name": "tokenId",
          "type": "uint256"
        }
      ],
      "name": "Approval",
      "type": "event"
    },
    {
      "anonymous": false,
      "inputs": [
        {
          "indexed": true,
          "internalType": "address",
          "name": "owner",
          "type": "address"
        },
        {
          "indexed": true,
          "internalType": "address",
          "name": "operator",
          "type": "address"
        },
        {
          "indexed": false,
          "internalType": "bool",
          "name": "approved",
          "type": "bool"
        }
      ],
      "name": "ApprovalForAll",
      "type": "event"
    },
    {
      "anonymous": false,
      "inputs": [
        {
          "indexed": false,
          "internalType": "uint16",
          "name": "_srcChainId",
          "type": "uint16"
        },
        {
          "indexed": false,
          "internalType": "bytes",
          "name": "_srcAddress",
          "type": "bytes"
        },
        {
          "indexed": false,
          "internalType": "uint64",
          "name": "_nonce",
          "type": "uint64"
        },
        {
          "indexed": false,
          "internalType": "bytes",
          "name": "_payload",
          "type": "bytes"
        }
      ],
      "name": "MessageFailed",
      "type": "event"
    },
    {
      "anonymous": false,
      "inputs": [
        {
          "indexed": true,
          "internalType": "address",
          "name": "previousOwner",
          "type": "address"
        },
        {
          "indexed": true,
          "internalType": "address",
          "name": "newOwner",
          "type": "address"
        }
      ],
      "name": "OwnershipTransferred",
      "type": "event"
    },
    {
      "anonymous": false,
      "inputs": [
        {
          "indexed": true,
          "internalType": "address",
          "name": "from",
          "type": "address"
        },
        {
          "indexed": true,
          "internalType": "address",
          "name": "to",
          "type": "address"
        },
        {
          "indexed": true,
          "internalType": "uint256",
          "name": "tokenId",
          "type": "uint256"
        }
      ],
      "name": "Transfer",
      "type": "event"
    },
    {
      "inputs": [],
      "name": "_owner",
      "outputs": [
        {
          "internalType": "address",
          "name": "",
          "type": "address"
        }
      ],
      "stateMutability": "view",
      "type": "function"
    },
    {
      "inputs": [
        {
          "internalType": "address",
          "name": "to",
          "type": "address"
        },
        {
          "internalType": "uint256",
          "name": "tokenId",
          "type": "uint256"
        }
      ],
      "name": "approve",
      "outputs": [],
      "stateMutability": "nonpayable",
      "type": "function"
    },
    {
      "inputs": [
        {
          "internalType": "address",
          "name": "owner",
          "type": "address"
        }
      ],
      "name": "balanceOf",
      "outputs": [
        {
          "internalType": "uint256",
          "name": "",
          "type": "uint256"
        }
      ],
      "stateMutability": "view",
      "type": "function"
    },
    {
      "inputs": [],
      "name": "baseExtension",
      "outputs": [
        {
          "internalType": "string",
          "name": "",
          "type": "string"
        }
      ],
      "stateMutability": "view",
      "type": "function"
    },
    {
      "inputs": [],
      "name": "currentTokenId",
      "outputs": [
        {
          "internalType": "uint256",
          "name": "",
          "type": "uint256"
        }
      ],
      "stateMutability": "view",
      "type": "function"
    },
    {
      "inputs": [
        {
          "internalType": "uint16",
          "name": "",
          "type": "uint16"
        },
        {
          "internalType": "bytes",
          "name": "",
          "type": "bytes"
        },
        {
          "internalType": "uint256",
          "name": "",
          "type": "uint256"
        }
      ],
      "name": "failedMessages",
      "outputs": [
        {
          "internalType": "uint256",
          "name": "payloadLength",
          "type": "uint256"
        },
        {
          "internalType": "bytes32",
          "name": "payloadHash",
          "type": "bytes32"
        }
      ],
      "stateMutability": "view",
      "type": "function"
    },
    {
      "inputs": [
        {
          "internalType": "uint256",
          "name": "tokenId",
          "type": "uint256"
        }
      ],
      "name": "getApproved",
      "outputs": [
        {
          "internalType": "address",
          "name": "",
          "type": "address"
        }
      ],
      "stateMutability": "view",
      "type": "function"
    },
    {
      "inputs": [
        {
          "internalType": "address",
          "name": "owner",
          "type": "address"
        },
        {
          "internalType": "address",
          "name": "operator",
          "type": "address"
        }
      ],
      "name": "isApprovedForAll",
      "outputs": [
        {
          "internalType": "bool",
          "name": "",
          "type": "bool"
        }
      ],
      "stateMutability": "view",
      "type": "function"
    },
    {
      "inputs": [
        {
          "internalType": "uint16",
          "name": "_srcChainId",
          "type": "uint16"
        },
        {
          "internalType": "bytes",
          "name": "_srcAddress",
          "type": "bytes"
        },
        {
          "internalType": "uint64",
          "name": "_nonce",
          "type": "uint64"
        },
        {
          "internalType": "bytes",
          "name": "_payload",
          "type": "bytes"
        }
      ],
      "name": "lzReceive",
      "outputs": [],
      "stateMutability": "nonpayable",
      "type": "function"
    },
    {
      "inputs": [
        {
          "internalType": "uint8",
          "name": "numTokens",
          "type": "uint8"
        }
      ],
      "name": "mint",
      "outputs": [],
      "stateMutability": "payable",
      "type": "function"
    },
    {
      "inputs": [],
      "name": "name",
      "outputs": [
        {
          "internalType": "string",
          "name": "",
          "type": "string"
        }
      ],
      "stateMutability": "view",
      "type": "function"
    },
    {
      "inputs": [
        {
          "internalType": "uint16",
          "name": "_srcChainId",
          "type": "uint16"
        },
        {
          "internalType": "bytes",
          "name": "_srcAddress",
          "type": "bytes"
        },
        {
          "internalType": "uint64",
          "name": "_nonce",
          "type": "uint64"
        },
        {
          "internalType": "bytes",
          "name": "_payload",
          "type": "bytes"
        }
      ],
      "name": "onLzReceive",
      "outputs": [],
      "stateMutability": "nonpayable",
      "type": "function"
    },
    {
      "inputs": [],
      "name": "owner",
      "outputs": [
        {
          "internalType": "address",
          "name": "",
          "type": "address"
        }
      ],
      "stateMutability": "view",
      "type": "function"
    },
    {
      "inputs": [
        {
          "internalType": "uint256",
          "name": "tokenId",
          "type": "uint256"
        }
      ],
      "name": "ownerOf",
      "outputs": [
        {
          "internalType": "address",
          "name": "",
          "type": "address"
        }
      ],
      "stateMutability": "view",
      "type": "function"
    },
    {
      "inputs": [],
      "name": "renounceOwnership",
      "outputs": [],
      "stateMutability": "nonpayable",
      "type": "function"
    },
    {
      "inputs": [
        {
          "internalType": "uint16",
          "name": "_srcChainId",
          "type": "uint16"
        },
        {
          "internalType": "bytes",
          "name": "_srcAddress",
          "type": "bytes"
        },
        {
          "internalType": "uint64",
          "name": "_nonce",
          "type": "uint64"
        },
        {
          "internalType": "bytes",
          "name": "_payload",
          "type": "bytes"
        }
      ],
      "name": "retryMessage",
      "outputs": [],
      "stateMutability": "payable",
      "type": "function"
    },
    {
      "inputs": [
        {
          "internalType": "address",
          "name": "from",
          "type": "address"
        },
        {
          "internalType": "address",
          "name": "to",
          "type": "address"
        },
        {
          "internalType": "uint256",
          "name": "tokenId",
          "type": "uint256"
        }
      ],
      "name": "safeTransferFrom",
      "outputs": [],
      "stateMutability": "nonpayable",
      "type": "function"
    },
    {
      "inputs": [
        {
          "internalType": "address",
          "name": "from",
          "type": "address"
        },
        {
          "internalType": "address",
          "name": "to",
          "type": "address"
        },
        {
          "internalType": "uint256",
          "name": "tokenId",
          "type": "uint256"
        },
        {
          "internalType": "bytes",
          "name": "_data",
          "type": "bytes"
        }
      ],
      "name": "safeTransferFrom",
      "outputs": [],
      "stateMutability": "nonpayable",
      "type": "function"
    },
    {
      "inputs": [
        {
          "internalType": "address",
          "name": "operator",
          "type": "address"
        },
        {
          "internalType": "bool",
          "name": "approved",
          "type": "bool"
        }
      ],
      "name": "setApprovalForAll",
      "outputs": [],
      "stateMutability": "nonpayable",
      "type": "function"
    },
    {
      "inputs": [
        {
          "internalType": "string",
          "name": "URI",
          "type": "string"
        }
      ],
      "name": "setBaseURI",
      "outputs": [],
      "stateMutability": "nonpayable",
      "type": "function"
    },
    {
      "inputs": [
        {
          "internalType": "uint256",
          "name": "newVal",
          "type": "uint256"
        }
      ],
      "name": "setGasForDestinationLzReceive",
      "outputs": [],
      "stateMutability": "nonpayable",
      "type": "function"
    },
    {
      "inputs": [
        {
          "internalType": "uint16",
          "name": "_chainId",
          "type": "uint16"
        },
        {
          "internalType": "bytes",
          "name": "_trustedRemote",
          "type": "bytes"
        }
      ],
      "name": "setTrustedRemote",
      "outputs": [],
      "stateMutability": "nonpayable",
      "type": "function"
    },
    {
      "inputs": [
        {
          "internalType": "bytes4",
          "name": "interfaceId",
          "type": "bytes4"
        }
      ],
      "name": "supportsInterface",
      "outputs": [
        {
          "internalType": "bool",
          "name": "",
          "type": "bool"
        }
      ],
      "stateMutability": "view",
      "type": "function"
    },
    {
      "inputs": [],
      "name": "symbol",
      "outputs": [
        {
          "internalType": "string",
          "name": "",
          "type": "string"
        }
      ],
      "stateMutability": "view",
      "type": "function"
    },
    {
      "inputs": [
        {
          "internalType": "uint256",
          "name": "tokenId",
          "type": "uint256"
        }
      ],
      "name": "tokenURI",
      "outputs": [
        {
          "internalType": "string",
          "name": "",
          "type": "string"
        }
      ],
      "stateMutability": "view",
      "type": "function"
    },
    {
      "inputs": [
        {
          "internalType": "address",
          "name": "from",
          "type": "address"
        },
        {
          "internalType": "address",
          "name": "to",
          "type": "address"
        },
        {
          "internalType": "uint256",
          "name": "tokenId",
          "type": "uint256"
        }
      ],
      "name": "transferFrom",
      "outputs": [],
      "stateMutability": "nonpayable",
      "type": "function"
    },
    {
      "inputs": [
        {
          "internalType": "address",
          "name": "newOwner",
          "type": "address"
        }
      ],
      "name": "transferOwnership",
      "outputs": [],
      "stateMutability": "nonpayable",
      "type": "function"
    },
    {
      "inputs": [
        {
          "internalType": "uint16",
          "name": "_chainId",
          "type": "uint16"
        },
        {
          "internalType": "uint256",
          "name": "tokenId",
          "type": "uint256"
        }
      ],
      "name": "traverseChains",
      "outputs": [],
      "stateMutability": "payable",
      "type": "function"
    },
    {
      "inputs": [
        {
          "internalType": "uint16",
          "name": "",
          "type": "uint16"
        }
      ],
      "name": "trustedRemoteLookup",
      "outputs": [
        {
          "internalType": "bytes",
          "name": "",
          "type": "bytes"
        }
      ],
      "stateMutability": "view",
      "type": "function"
    },
    {
      "inputs": [
        {
          "internalType": "uint256",
          "name": "amt",
          "type": "uint256"
        }
      ],
      "name": "withdraw",
      "outputs": [],
      "stateMutability": "nonpayable",
      "type": "function"
    }
  ],
  "bytecode": "0x6000600c819055600d556002600e5560c06040526005608081905264173539b7b760d91b60a09081526200003791600f91906200019e565b50620557306010553480156200004c57600080fd5b5060405162002e5b38038062002e5b8339810160408190526200006f9162000277565b6040518060400160405280600a81526020016974696e7920626561727360b01b8152506040518060400160405280600681526020016574626561727360d01b815250620000cb620000c56200014a60201b60201c565b6200014e565b8151620000e09060019060208501906200019e565b508051620000f69060029060208401906200019e565b5050600a8054336001600160a01b031991821617909155600780549091166001600160a01b0386161790555083516200013790600b9060208701906200019e565b50600c91909155600d5550620003b59050565b3390565b600080546001600160a01b038381166001600160a01b0319831681178455604051919092169283917f8be0079c531659141344cd1fd0a4f28419497f9722a3daafe3b4186f6b6457e09190a35050565b828054620001ac9062000378565b90600052602060002090601f016020900481019282620001d057600085556200021b565b82601f10620001eb57805160ff19168380011785556200021b565b828001600101855582156200021b579182015b828111156200021b578251825591602001919060010190620001fe565b50620002299291506200022d565b5090565b5b808211156200022957600081556001016200022e565b634e487b7160e01b600052604160045260246000fd5b80516001600160a01b03811681146200027257600080fd5b919050565b600080600080608085870312156200028e57600080fd5b84516001600160401b0380821115620002a657600080fd5b818701915087601f830112620002bb57600080fd5b815181811115620002d057620002d062000244565b604051601f8201601f19908116603f01168101908382118183101715620002fb57620002fb62000244565b81604052828152602093508a848487010111156200031857600080fd5b600091505b828210156200033c57848201840151818301850152908301906200031d565b828211156200034e5760008484830101525b9750620003609150508782016200025a565b60408801516060909801519699909850945050505050565b600181811c908216806200038d57607f821691505b60208210811415620003af57634e487b7160e01b600052602260045260246000fd5b50919050565b612a9680620003c56000396000f3fe6080604052600436106101cb5760003560e01c80637533d788116100f7578063b88d4fde11610095578063d1deba1f11610064578063d1deba1f1461054e578063e985e9c514610561578063eb8d72b7146105aa578063f2fde38b146105ca57600080fd5b8063b88d4fde146104e6578063c668286214610506578063c87b56dd1461051b578063cf89fa031461053b57600080fd5b8063943fb872116100d1578063943fb8721461047157806395d89b4114610491578063a22cb465146104a6578063b2bdfa7b146104c657600080fd5b80637533d788146103c85780638da5cb5b146103e85780638ee749121461040657600080fd5b806323b872dd1161016f5780636352211e1161013e5780636352211e146103605780636ecd23061461038057806370a0823114610393578063715018a6146103b357600080fd5b806323b872dd146102e05780632e1a7d4d1461030057806342842e0e1461032057806355f804b31461034057600080fd5b806306fdde03116101ab57806306fdde0314610246578063081812fc14610268578063095ea7b3146102a05780631c37a822146102c057600080fd5b80621d3567146101d05780629a9b7b146101f257806301ffc9a714610216575b600080fd5b3480156101dc57600080fd5b506101f06101eb366004612050565b6105ea565b005b3480156101fe57600080fd5b50600c545b6040519081526020015b60405180910390f35b34801561022257600080fd5b506102366102313660046120ea565b6107e4565b604051901515815260200161020d565b34801561025257600080fd5b5061025b610836565b60405161020d919061215f565b34801561027457600080fd5b50610288610283366004612172565b6108c8565b6040516001600160a01b03909116815260200161020d565b3480156102ac57600080fd5b506101f06102bb3660046121a0565b61095d565b3480156102cc57600080fd5b506101f06102db366004612050565b610a73565b3480156102ec57600080fd5b506101f06102fb3660046121cc565b610ae2565b34801561030c57600080fd5b506101f061031b366004612172565b610b13565b34801561032c57600080fd5b506101f061033b3660046121cc565b610bf0565b34801561034c57600080fd5b506101f061035b36600461220d565b610c0b565b34801561036c57600080fd5b5061028861037b366004612172565b610c48565b6101f061038e366004612255565b610cbf565b34801561039f57600080fd5b506102036103ae366004612278565b610df5565b3480156103bf57600080fd5b506101f0610e7c565b3480156103d457600080fd5b5061025b6103e3366004612295565b610eb2565b3480156103f457600080fd5b506000546001600160a01b0316610288565b34801561041257600080fd5b5061045c6104213660046122b0565b600860209081526000938452604080852084518086018401805192815290840195840195909520945292905282529020805460019091015482565b6040805192835260208301919091520161020d565b34801561047d57600080fd5b506101f061048c366004612172565b610f4c565b34801561049d57600080fd5b5061025b610f7b565b3480156104b257600080fd5b506101f06104c1366004612306565b610f8a565b3480156104d257600080fd5b50600a54610288906001600160a01b031681565b3480156104f257600080fd5b506101f0610501366004612344565b610f95565b34801561051257600080fd5b5061025b610fc7565b34801561052757600080fd5b5061025b610536366004612172565b610fd4565b6101f06105493660046123a3565b6110af565b6101f061055c366004612407565b611398565b34801561056d57600080fd5b5061023661057c366004612492565b6001600160a01b03918216600090815260066020908152604080832093909416825291909152205460ff1690565b3480156105b657600080fd5b506101f06105c53660046124c0565b611525565b3480156105d657600080fd5b506101f06105e5366004612278565b61156d565b6007546001600160a01b0316331461060157600080fd5b61ffff84166000908152600960205260409020805461061f90612512565b9050835114801561065e575061ffff841660009081526009602052604090819020905161064c919061254d565b60405180910390208380519060200120145b6106cc5760405162461bcd60e51b815260206004820152603460248201527f4e6f6e626c6f636b696e6752656365697665723a20696e76616c696420736f756044820152731c98d9481cd95b991a5b99c818dbdb9d1c9858dd60621b60648201526084015b60405180910390fd5b604051630e1bd41160e11b81523090631c37a822906106f59087908790879087906004016125bf565b600060405180830381600087803b15801561070f57600080fd5b505af1925050508015610720575060015b6107de576040518060400160405280825181526020018280519060200120815250600860008661ffff1661ffff1681526020019081526020016000208460405161076a9190612608565b9081526040805191829003602090810183206001600160401b038716600090815290825291909120835181559201516001909201919091557fe6f254030bcb01ffd20558175c13fcaed6d1520be7becee4c961b65f79243b0d906107d59086908690869086906125bf565b60405180910390a15b50505050565b60006001600160e01b031982166380ac58cd60e01b148061081557506001600160e01b03198216635b5e139f60e01b145b8061083057506301ffc9a760e01b6001600160e01b03198316145b92915050565b60606001805461084590612512565b80601f016020809104026020016040519081016040528092919081815260200182805461087190612512565b80156108be5780601f10610893576101008083540402835291602001916108be565b820191906000526020600020905b8154815290600101906020018083116108a157829003601f168201915b5050505050905090565b6000818152600360205260408120546001600160a01b03166109415760405162461bcd60e51b815260206004820152602c60248201527f4552433732313a20617070726f76656420717565727920666f72206e6f6e657860448201526b34b9ba32b73a103a37b5b2b760a11b60648201526084016106c3565b506000908152600560205260409020546001600160a01b031690565b600061096882610c48565b9050806001600160a01b0316836001600160a01b031614156109d65760405162461bcd60e51b815260206004820152602160248201527f4552433732313a20617070726f76616c20746f2063757272656e74206f776e656044820152603960f91b60648201526084016106c3565b336001600160a01b03821614806109f257506109f2813361057c565b610a645760405162461bcd60e51b815260206004820152603860248201527f4552433732313a20617070726f76652063616c6c6572206973206e6f74206f7760448201527f6e6572206e6f7220617070726f76656420666f7220616c6c000000000000000060648201526084016106c3565b610a6e8383611608565b505050565b333014610ad65760405162461bcd60e51b815260206004820152602b60248201527f4e6f6e626c6f636b696e6752656365697665723a2063616c6c6572206d75737460448201526a10313290213934b233b29760a91b60648201526084016106c3565b6107de84848484611676565b610aec33826116a3565b610b085760405162461bcd60e51b81526004016106c390612624565b610a6e83838361179a565b6000546001600160a01b03163314610b3d5760405162461bcd60e51b81526004016106c390612675565b600a546040516000916001600160a01b03169083908381818185875af1925050503d8060008114610b8a576040519150601f19603f3d011682016040523d82523d6000602084013e610b8f565b606091505b5050905080610bec5760405162461bcd60e51b8152602060048201526024808201527f74696e792062656172733a204661696c656420746f2077697468647261772066604482015263756e647360e01b60648201526084016106c3565b5050565b610a6e83838360405180602001604052806000815250610f95565b6000546001600160a01b03163314610c355760405162461bcd60e51b81526004016106c390612675565b8051610bec90600b906020840190611e6a565b6000818152600360205260408120546001600160a01b0316806108305760405162461bcd60e51b815260206004820152602960248201527f4552433732313a206f776e657220717565727920666f72206e6f6e657869737460448201526832b73a103a37b5b2b760b91b60648201526084016106c3565b600e548160ff16610ccf33610df5565b610cd991906126c0565b1115610d3c5760405162461bcd60e51b815260206004820152602c60248201527f54696e79446f67653a204d6178206d696e74207065722077616c6c657420616d60448201526b1bdd5b9d081c995858da195960a21b60648201526084016106c3565b600d548160ff16600c54610d5091906126c0565b1115610db55760405162461bcd60e51b815260206004820152602e60248201527f54696e79446f67653a204d696e74206578636565647320737570706c7920666f60448201526d722074686973206e6574776f726b60901b60648201526084016106c3565b60005b8160ff168160ff161015610bec57610de333600c60008154610dd9906126d8565b918290555061193a565b80610ded816126f3565b915050610db8565b60006001600160a01b038216610e605760405162461bcd60e51b815260206004820152602a60248201527f4552433732313a2062616c616e636520717565727920666f7220746865207a65604482015269726f206164647265737360b01b60648201526084016106c3565b506001600160a01b031660009081526004602052604090205490565b6000546001600160a01b03163314610ea65760405162461bcd60e51b81526004016106c390612675565b610eb06000611954565b565b60096020526000908152604090208054610ecb90612512565b80601f0160208091040260200160405190810160405280929190818152602001828054610ef790612512565b8015610f445780601f10610f1957610100808354040283529160200191610f44565b820191906000526020600020905b815481529060010190602001808311610f2757829003601f168201915b505050505081565b6000546001600160a01b03163314610f765760405162461bcd60e51b81526004016106c390612675565b601055565b60606002805461084590612512565b610bec3383836119a4565b610f9f33836116a3565b610fbb5760405162461bcd60e51b81526004016106c390612624565b6107de84848484611a73565b600f8054610ecb90612512565b6000818152600360205260409020546060906001600160a01b03166110535760405162461bcd60e51b815260206004820152602f60248201527f4552433732314d657461646174613a2055524920717565727920666f72206e6f60448201526e3732bc34b9ba32b73a103a37b5b2b760891b60648201526084016106c3565b600061105d611aa6565b9050600081511161107d57604051806020016040528060008152506110a8565b8061108784611ab5565b604051602001611098929190612713565b6040516020818303038152906040525b9392505050565b6110b881610c48565b6001600160a01b0316336001600160a01b0316146111235760405162461bcd60e51b815260206004820152602260248201527f596f75206d757374206f776e2074686520746f6b656e20746f20747261766572604482015261736560f01b60648201526084016106c3565b61ffff82166000908152600960205260408120805461114190612512565b9050116111a75760405162461bcd60e51b815260206004820152602e60248201527f5468697320636861696e2069732063757272656e746c7920756e617661696c6160448201526d189b1948199bdc881d1c985d995b60921b60648201526084016106c3565b6111b081611bb2565b60408051336020820152808201839052815180820383018152606082018352601054600160f01b60808401526082808401919091528351808403909101815260a283019384905260075463040a7bb160e41b90945290926001926000916001600160a01b0316906340a7bb1090611233908990309089908790899060a601612752565b604080518083038186803b15801561124a57600080fd5b505afa15801561125e573d6000803e3d6000fd5b505050506040513d601f19601f8201168201806040525081019061128291906127a6565b509050803410156113135760405162461bcd60e51b815260206004820152604f60248201527f74696e792062656172733a206d73672e76616c7565206e6f7420656e6f75676860448201527f20746f20636f766572206d6573736167654665652e2053656e6420676173206660648201526e6f72206d657373616765206665657360881b608482015260a4016106c3565b60075461ffff8716600090815260096020526040808220905162c5803160e81b81526001600160a01b039093169263c580310092349261135e928c928b913391908b906004016127ca565b6000604051808303818588803b15801561137757600080fd5b505af115801561138b573d6000803e3d6000fd5b5050505050505050505050565b61ffff851660009081526008602052604080822090516113b9908790612608565b90815260408051602092819003830190206001600160401b03871660009081529252902060018101549091506114405760405162461bcd60e51b815260206004820152602660248201527f4e6f6e626c6f636b696e6752656365697665723a206e6f2073746f726564206d60448201526565737361676560d01b60648201526084016106c3565b80548214801561146a5750806001015483836040516114609291906128aa565b6040518091039020145b6114b65760405162461bcd60e51b815260206004820152601a60248201527f4c617965725a65726f3a20696e76616c6964207061796c6f616400000000000060448201526064016106c3565b60008082556001820155604051630e1bd41160e11b81523090631c37a822906114eb90899089908990899089906004016128ba565b600060405180830381600087803b15801561150557600080fd5b505af1158015611519573d6000803e3d6000fd5b50505050505050505050565b6000546001600160a01b0316331461154f5760405162461bcd60e51b81526004016106c390612675565b61ffff831660009081526009602052604090206107de908383611eee565b6000546001600160a01b031633146115975760405162461bcd60e51b81526004016106c390612675565b6001600160a01b0381166115fc5760405162461bcd60e51b815260206004820152602660248201527f4f776e61626c653a206e6577206f776e657220697320746865207a65726f206160448201526564647265737360d01b60648201526084016106c3565b61160581611954565b50565b600081815260056020526040902080546001600160a01b0319166001600160a01b038416908117909155819061163d82610c48565b6001600160a01b03167f8c5be1e5ebec7d5bd14f71427d1e84f3dd0314c0f7b2291e5b200ac8c7c3b92560405160405180910390a45050565b6000808280602001905181019061168d919061291b565b9150915061169b828261193a565b505050505050565b6000818152600360205260408120546001600160a01b031661171c5760405162461bcd60e51b815260206004820152602c60248201527f4552433732313a206f70657261746f7220717565727920666f72206e6f6e657860448201526b34b9ba32b73a103a37b5b2b760a11b60648201526084016106c3565b600061172783610c48565b9050806001600160a01b0316846001600160a01b031614806117625750836001600160a01b0316611757846108c8565b6001600160a01b0316145b8061179257506001600160a01b0380821660009081526006602090815260408083209388168352929052205460ff165b949350505050565b826001600160a01b03166117ad82610c48565b6001600160a01b0316146118155760405162461bcd60e51b815260206004820152602960248201527f4552433732313a207472616e73666572206f6620746f6b656e2074686174206960448201526839903737ba1037bbb760b91b60648201526084016106c3565b6001600160a01b0382166118775760405162461bcd60e51b8152602060048201526024808201527f4552433732313a207472616e7366657220746f20746865207a65726f206164646044820152637265737360e01b60648201526084016106c3565b611882600082611608565b6001600160a01b03831660009081526004602052604081208054600192906118ab908490612949565b90915550506001600160a01b03821660009081526004602052604081208054600192906118d99084906126c0565b909155505060008181526003602052604080822080546001600160a01b0319166001600160a01b0386811691821790925591518493918716917fddf252ad1be2c89b69c2b068fc378daa952ba7f163c4a11628f55a4df523b3ef91a4505050565b610bec828260405180602001604052806000815250611c4d565b600080546001600160a01b038381166001600160a01b0319831681178455604051919092169283917f8be0079c531659141344cd1fd0a4f28419497f9722a3daafe3b4186f6b6457e09190a35050565b816001600160a01b0316836001600160a01b03161415611a065760405162461bcd60e51b815260206004820152601960248201527f4552433732313a20617070726f766520746f2063616c6c65720000000000000060448201526064016106c3565b6001600160a01b03838116600081815260066020908152604080832094871680845294825291829020805460ff191686151590811790915591519182527f17307eab39ab6107e8899845ad3d59bd9653f200f220920489ca2b5937696c31910160405180910390a3505050565b611a7e84848461179a565b611a8a84848484611c80565b6107de5760405162461bcd60e51b81526004016106c390612960565b6060600b805461084590612512565b606081611ad95750506040805180820190915260018152600360fc1b602082015290565b8160005b8115611b035780611aed816126d8565b9150611afc9050600a836129c8565b9150611add565b6000816001600160401b03811115611b1d57611b1d611f8e565b6040519080825280601f01601f191660200182016040528015611b47576020820181803683370190505b5090505b841561179257611b5c600183612949565b9150611b69600a866129dc565b611b749060306126c0565b60f81b818381518110611b8957611b896129f0565b60200101906001600160f81b031916908160001a905350611bab600a866129c8565b9450611b4b565b6000611bbd82610c48565b9050611bca600083611608565b6001600160a01b0381166000908152600460205260408120805460019290611bf3908490612949565b909155505060008281526003602052604080822080546001600160a01b0319169055518391906001600160a01b038416907fddf252ad1be2c89b69c2b068fc378daa952ba7f163c4a11628f55a4df523b3ef908390a45050565b611c578383611d8d565b611c646000848484611c80565b610a6e5760405162461bcd60e51b81526004016106c390612960565b60006001600160a01b0384163b15611d8257604051630a85bd0160e11b81526001600160a01b0385169063150b7a0290611cc4903390899088908890600401612a06565b602060405180830381600087803b158015611cde57600080fd5b505af1925050508015611d0e575060408051601f3d908101601f19168201909252611d0b91810190612a43565b60015b611d68573d808015611d3c576040519150601f19603f3d011682016040523d82523d6000602084013e611d41565b606091505b508051611d605760405162461bcd60e51b81526004016106c390612960565b805181602001fd5b6001600160e01b031916630a85bd0160e11b149050611792565b506001949350505050565b6001600160a01b038216611de35760405162461bcd60e51b815260206004820181905260248201527f4552433732313a206d696e7420746f20746865207a65726f206164647265737360448201526064016106c3565b6001600160a01b0382166000908152600460205260408120805460019290611e0c9084906126c0565b909155505060008181526003602052604080822080546001600160a01b0319166001600160a01b03861690811790915590518392907fddf252ad1be2c89b69c2b068fc378daa952ba7f163c4a11628f55a4df523b3ef908290a45050565b828054611e7690612512565b90600052602060002090601f016020900481019282611e985760008555611ede565b82601f10611eb157805160ff1916838001178555611ede565b82800160010185558215611ede579182015b82811115611ede578251825591602001919060010190611ec3565b50611eea929150611f62565b5090565b828054611efa90612512565b90600052602060002090601f016020900481019282611f1c5760008555611ede565b82601f10611f355782800160ff19823516178555611ede565b82800160010185558215611ede579182015b82811115611ede578235825591602001919060010190611f47565b5b80821115611eea5760008155600101611f63565b803561ffff81168114611f8957600080fd5b919050565b634e487b7160e01b600052604160045260246000fd5b60006001600160401b0380841115611fbe57611fbe611f8e565b604051601f8501601f19908116603f01168101908282118183101715611fe657611fe6611f8e565b81604052809350858152868686011115611fff57600080fd5b858560208301376000602087830101525050509392505050565b600082601f83011261202a57600080fd5b6110a883833560208501611fa4565b80356001600160401b0381168114611f8957600080fd5b6000806000806080858703121561206657600080fd5b61206f85611f77565b935060208501356001600160401b038082111561208b57600080fd5b61209788838901612019565b94506120a560408801612039565b935060608701359150808211156120bb57600080fd5b506120c887828801612019565b91505092959194509250565b6001600160e01b03198116811461160557600080fd5b6000602082840312156120fc57600080fd5b81356110a8816120d4565b60005b8381101561212257818101518382015260200161210a565b838111156107de5750506000910152565b6000815180845261214b816020860160208601612107565b601f01601f19169290920160200192915050565b6020815260006110a86020830184612133565b60006020828403121561218457600080fd5b5035919050565b6001600160a01b038116811461160557600080fd5b600080604083850312156121b357600080fd5b82356121be8161218b565b946020939093013593505050565b6000806000606084860312156121e157600080fd5b83356121ec8161218b565b925060208401356121fc8161218b565b929592945050506040919091013590565b60006020828403121561221f57600080fd5b81356001600160401b0381111561223557600080fd5b8201601f8101841361224657600080fd5b61179284823560208401611fa4565b60006020828403121561226757600080fd5b813560ff811681146110a857600080fd5b60006020828403121561228a57600080fd5b81356110a88161218b565b6000602082840312156122a757600080fd5b6110a882611f77565b6000806000606084860312156122c557600080fd5b6122ce84611f77565b925060208401356001600160401b038111156122e957600080fd5b6122f586828701612019565b925050604084013590509250925092565b6000806040838503121561231957600080fd5b82356123248161218b565b91506020830135801515811461233957600080fd5b809150509250929050565b6000806000806080858703121561235a57600080fd5b84356123658161218b565b935060208501356123758161218b565b92506040850135915060608501356001600160401b0381111561239757600080fd5b6120c887828801612019565b600080604083850312156123b657600080fd5b6121be83611f77565b60008083601f8401126123d157600080fd5b5081356001600160401b038111156123e857600080fd5b60208301915083602082850101111561240057600080fd5b9250929050565b60008060008060006080868803121561241f57600080fd5b61242886611f77565b945060208601356001600160401b038082111561244457600080fd5b61245089838a01612019565b955061245e60408901612039565b9450606088013591508082111561247457600080fd5b50612481888289016123bf565b969995985093965092949392505050565b600080604083850312156124a557600080fd5b82356124b08161218b565b915060208301356123398161218b565b6000806000604084860312156124d557600080fd5b6124de84611f77565b925060208401356001600160401b038111156124f957600080fd5b612505868287016123bf565b9497909650939450505050565b600181811c9082168061252657607f821691505b6020821081141561254757634e487b7160e01b600052602260045260246000fd5b50919050565b600080835461255b81612512565b600182811680156125735760018114612584576125b3565b60ff198416875282870194506125b3565b8760005260208060002060005b858110156125aa5781548a820152908401908201612591565b50505082870194505b50929695505050505050565b61ffff851681526080602082015260006125dc6080830186612133565b6001600160401b038516604084015282810360608401526125fd8185612133565b979650505050505050565b6000825161261a818460208701612107565b9190910192915050565b60208082526031908201527f4552433732313a207472616e736665722063616c6c6572206973206e6f74206f6040820152701ddb995c881b9bdc88185c1c1c9bdd9959607a1b606082015260800190565b6020808252818101527f4f776e61626c653a2063616c6c6572206973206e6f7420746865206f776e6572604082015260600190565b634e487b7160e01b600052601160045260246000fd5b600082198211156126d3576126d36126aa565b500190565b60006000198214156126ec576126ec6126aa565b5060010190565b600060ff821660ff81141561270a5761270a6126aa565b60010192915050565b60008351612725818460208801612107565b835190830190612739818360208801612107565b64173539b7b760d91b9101908152600501949350505050565b61ffff861681526001600160a01b038516602082015260a06040820181905260009061278090830186612133565b8415156060840152828103608084015261279a8185612133565b98975050505050505050565b600080604083850312156127b957600080fd5b505080516020909101519092909150565b61ffff871681526000602060c081840152600088546127e881612512565b8060c087015260e060018084166000811461280a576001811461281f5761284d565b60ff198516898401526101008901955061284d565b8d6000528660002060005b858110156128455781548b820186015290830190880161282a565b8a0184019650505b505050505083810360408501526128648189612133565b91505061287c60608401876001600160a01b03169052565b6001600160a01b038516608084015282810360a084015261289d8185612133565b9998505050505050505050565b8183823760009101908152919050565b61ffff861681526080602082015260006128d76080830187612133565b6001600160401b03861660408401528281036060840152838152838560208301376000602085830101526020601f19601f8601168201019150509695505050505050565b6000806040838503121561292e57600080fd5b82516129398161218b565b6020939093015192949293505050565b60008282101561295b5761295b6126aa565b500390565b60208082526032908201527f4552433732313a207472616e7366657220746f206e6f6e20455243373231526560408201527131b2b4bb32b91034b6b83632b6b2b73a32b960711b606082015260800190565b634e487b7160e01b600052601260045260246000fd5b6000826129d7576129d76129b2565b500490565b6000826129eb576129eb6129b2565b500690565b634e487b7160e01b600052603260045260246000fd5b6001600160a01b0385811682528416602082015260408101839052608060608201819052600090612a3990830184612133565b9695505050505050565b600060208284031215612a5557600080fd5b81516110a8816120d456fea2646970667358221220079e753e09d6d2074796f5a16e9193302ebd2d07875fbef26e17b59c7ed753dd64736f6c63430008090033",
  "linkReferences": {},
  "deployedLinkReferences": {}
}